:100000000EC015C014C013C012C011C010C00FC064
:100010000EC00DC00CC00BC00AC009C008C011241E
:100020001FBECFE5D1E0DEBFCDBF27D034C0E8CFC3
:10003000CF93DF9300D000D0CDB7DEB769837A834A
:100040008B839C8389819A81AB81BC81892B8A2B8C
:100050008B2B39F40F900F900F900F90DF91CF9171
:10006000089589819A81AB81BC810197A109B10969
:1000700089839A83AB83BC83E5CFB99AC19A60E543
:1000800073EC80E090E0D4DFC19860E573EC80E031
:0A00900090E0CEDFF3CFF894FFCF2D
:00000001FF
